:100000000C9443030C9474030C9474030C947403C5
:100010000C9474030C9474030C9474030C94740384
:100020000C9474030C9474030C9474030C94740374
:100030000C9474030C9474030C9474030C94740364
:100040000C9474030C94CB370C9474030C947403C9
:100050000C9474030C9474030C9474030C948936FC
:100060000C9474030C94FD360C94D3360C947403E6
:100070000C9474030C9474030C9474030C94740324
:100080000C949D370C9474030C9474030C947403B7
:100090000C9474030C9474030C9474030C94F9374B
:1000A0000C9474030C9474030C946F370C947403C5
:1000B0000C9474030C9474030C9474030C944137E3
:1000C0000C9474030C9474030C9474030C947403D4
:1000D0000C9474030C9474030C9474030C947403C4
:1000E0000C9474030C9473080C9464040C94B6057B
:1000F0000C94560A0C9480250C945E040C94321FC8
:100100000C9493290C9466320C94DF250C94772878
:100110000C946F0E0C94E4220C94CE1B0C941408D7
:100120000C948B350C94482F0C945B040C94B20BFC
:100130000C94EE2A0C94911C0C94FA250C949805BE
:100140000C94C20D0C9485360C94B80C0C94C00819
:100150000C94CF050C943A1C0C94C20E0C94C40D54
:100160000C94900E0C94B60D0C9460200C944E19C7
:100170000C9451190C946A050C948E040C943B0E4B
:100180000C94942E0C94580F0C9480040C94ED0550
:100190000C94F7050C94A2250C9494210C94191539
:1001A0000C94BE0D0C9407350C94F3220C940508A6
:1001B0000C94F32D0C9429300C94DB0B0C946630CA
:1001C0000C94C10B0C942D340C94902D0C9489112B
:1001D0000C94910D0C94D40B0C9453040C94E305E3
:1001E0000C9480310C94941C0C9489300C9415342C
:1001F0000C9439080C94D7160C94A2050C9489041D
:100200000C941A0E0C94B01E0C9499090C94AA32FA
:100210000C943C0D0C94DE1D0C9440240C94D00CDA
:100220000C948F300C94B00B0C944A0F0C94D41B8C
:100230000C94981C0C94D91E0C9490050C94D90520
:100240000C9484040C94C51E0C9474050C94BC0D81
:100250000C94BA0D0C94D80E0C94730D0C94760477
:100260000C94AF2D0C94080C0C94D4150C942B0802
:100270000C94430F0C94C00D0C94EE150C9488054F
:100280000C94962B0C94E9290C9468040C949034EB
:100290000C9457190C94D8070C94AC050C945D057C
:1002A0000C943F0D0C946E040C9465050C9457044B
:1002B0000C94BD250C942A200C9453150C948E1C80
:1002C0000C947E050C9420330C945F0F0C94510F0A
:1002D0000C9449040C94CC210C9467130C942E2894
:1002E0000C948A040C944F040C94350F0C94B10BAD
:1002F0000C94B80D0C94382F0C943C0F0C94160FE2
:100300000C947C040C94D5230C94283A0C94C505C9
:100310000C94FB230C942D0F0C94A6070C947204E0
:100320006E2F61004F4B004F4B004F4B00646F65C9
:1003300073206E6F742066697420696E204D656D40
:100340006F7279004661696C7572652C2045455065
:10035000524F4D2073697A652065786365656465E1
:10036000642000437573746F6D204465766963651E
:10037000206973206E6F7420737570706F7274656E
:10038000642062792074686973206669726D776190
:1003900072652076657273696F6E00437573746F52
:1003A0006D2044657669636520646F6573206E6FA8
:1003B000742066697420696E204D656D6F727900D6
:1003C000437573746F6D2044657669636520646F4F
:1003D0006573206E6F742066697420696E204D65A8
:1003E0006D6F727900496E707574536869667465D3
:1003F0007220617272617920646F6573206E6F7410
:100400002066697420696E746F204D656D6F727916
:10041000004F7574707574536869667465722061F5
:100420007272617920646F6573206E6F74206669E3
:100430007420696E746F204D656D6F7279004D4642
:100440005374657070657220646F6573206E6F748D
:100450002066697420696E204D656D6F7279004C5D
:100460006564205365676D656E7420617272617991
:1004700020646F6573206E6F742066697420696EE6
:10048000746F204D656D6F7279004661696C75728D
:1004900065206F6E2072656164696E6720636F6EA0
:1004A00066696700494C535F4E656F506978656CAB
:1004B0005F6D656761007E306D79335B5F707F7B58
:1004C000771F0D3D4F4700000000000000000000B6
:1004D000000000000000000000000000000000001C
:1004E0000000800180257E306D79335B5F707F7BFB
:1004F00000000009000000777F4E7E4F475F3730D5
:100500007C000E00767E677E775B463E00000033FF
:100510006D4E13780008007D1F0D3D4F477B37302F
:1005200038000600151D6773055B0F1C00000027CF
:100530006D4E0078000044657669636542756666B5
:100540006572204F766572666C6F7721004C6F6123
:1005500064696E6720636F6E666967206661696CA7
:1005600065640000002100240027002A002D0030CF
:1005700000330001010000040107010A010000220C
:1005800000250028002B002E00310034000201005D
:1005900000050108010B01000020002300260029AE
:1005A000002C002F003200000100000301060109A9
:1005B0000105050505070508080808020202020AE8
:1005C0000A080804040404010101010101010103F6
:1005D00003030303030303040707070C0C0C0C0CB1
:1005E0000C0C0C0202020206060606060606060BA4
:1005F0000B0B0B0B0B0B0B0102102020080810201B
:10060000401020408002010201080402010102049E
:10061000081020408080402010080402018004025D
:1006200001804020100804020108040201010204B4
:100630000810204080010204081020408000000AB9
:100640000B02090C0D0E0807030401000000000056
:10065000000000000000000000000000000000009A
:100660000000000000000000001211100000000057
:10067000000000000000000000000000000000007A
:1006800000000000283A11241FBECFEFD1E2DEBFE8
:10069000CDBF00E00CBF13E0A0E0B2E0EEE8F6E86A
:1006A00000E00BBF02C007900D92A23DB107D9F741
:1006B00022E1A2EDB3E001C01D92AC36B207E1F732
:1006C00013E0C3E4D3E000E006C021970109802FC6
:1006D000FE010E94AC41C234D10780E00807A9F7AF
:1006E0000E94E03A0C9445430C940000CF92DF92B4
:1006F000EF929C01255E3F4FFB01C080D180E280DC
:10070000FC01C192D192E192CF01E217F307A1F768
:10071000EF90DF90CF900895AC011092511190911D
:10072000211280912012FA01BF01641B750B2091E8
:100730005111308130935111931304C0921302C0B0
:10074000109251113081311104C0921721F0CB0168
:1007500008953817D1F33196E7CF0F931F93CF93B6
:10076000DF9380911512882309F446C0D0E0C0E0E1
:10077000813029F482E080931512C5E5D1E18091A2
:100780001612882341F1209721F4C0911A12D091BA
:100790001B128E01CE010E948C03892B29F4219615
:1007A000F80180818111F5CFF8018081882309F15A
:1007B000C8010E948C03F801E80FF91F808188238B
:1007C00011F010823196F0931B12E0931A121093DD
:1007D0001912009318128091181290911912892BF6
:1007E00059F081E080931612DF91CF911F910F9104
:1007F000089510E000E0EBCF80E0F6CF0E94AD035B
:10080000882351F081E08093161280931712809113
:1008100018129091191208951092171290E080E02A
:100820000895CF93DF93DC01FD01EC0128812223A1
:1008300051F030912112231301C00196FC01208157
:100840002D930196F1CFE817F90710F41192FBCF21
:10085000DF91CF9108958150823108F05AC0E82F7E
:10086000F0E08827E95CFB4F8F4F0C94AC415704B4
:100870005B0449044F04530489045E04640468045F
:100880006E04720476047C048004890484048A045F
:100890008E04809180008F778093800008958091EE
:1008A00080008F7DF9CF80918000877FF5CF84B560
:1008B0008F7784BD089584B58F7DFBCF8091B00084
:1008C0008F778093B00008958091B0008F7DF9CF2D
:1008D000809190008F778093900008958091900090
:1008E0008F7DF9CF80919000877FF5CF8091A00018
:1008F0008F778093A00008958091A0008F7DF9CF1D
:100900008091A000877FF5CF809120018F77809321
:1009100020010895809120018F7DF9CF80912001E1
:10092000877FF5CFCF93DF93282F30E0F901E35C89
:10093000F94F8491F901E950FA4FD491F901EF543C
:10094000FA4FC491CC23A1F081110E942B04EC2F0B
:10095000F0E0EE0FFF1FE956FA4FA591B491EC912C
:10096000ED2381E090E009F480E0DF91CF910895DC
:1009700080E090E0FACF1F93CF93DF93282F30E0F1
:10098000F901E35CF94F8491F901E950FA4FD491F0
:10099000F901EF54FA4FC491CC23A9F0162F81111D
:1009A0000E942B04EC2FF0E0EE0FFF1FE358FA4FEC
:1009B000A591B4918FB7F894EC91111108C0D0951E
:1009C000DE23DC938FBFDF91CF911F910895DE2B43
:1009D000F8CFCF93DF9390E0FC01E950FA4F2491D8
:1009E0008F549A4FFC0184918823C9F090E0880FBE
:1009F000991FFC01ED59FA4FA591B491FC01E35800
:100A0000FA4FC591D49161110DC09FB7F8948C91A4
:100A1000209582238C938881282328839FBFDF9190
:100A2000CF910895623051F49FB7F8943C91822F92
:100A3000809583238C93E8812E2BEFCF8FB7F8948A
:100A4000EC912E2B2C938FBFEACF1F93CF93DF9384
:100A5000182FEB0161E00E94E904209739F460E06F
:100A6000812FDF91CF911F910C94BB04CF3FD10513
:100A700011F461E0F5CFE12FF0E0E35CF94FE49190
:100A8000E150E23108F0B3C0F0E08827E55BFA4FAF
:100A90008F4F0C94AC415D0565056A0574057E05B4
:100AA000F705880590059805A205AC05B605C505AE
:100AB000CF05F705D905E305ED0584B5806884BD4C
:100AC000C7BDDF91CF911F91089584B5806284BD29
:100AD000C8BDF7CF80918000806880938000D0935C
:100AE0008900C0938800EDCF809180008062809360
:100AF0008000D0938B00C0938A00E3CF8091800068
:100B0000886080938000D0938D00C0938C00D9CFF3
:100B10008091B00080688093B000C093B300D1CFC3
:100B20008091B00080628093B000C093B400C9CFC0
:100B300080919000806880939000D0939900C0933A
:100B40009800BFCF80919000806280939000D093F6
:100B50009B00C0939A00B5CF8091900088608093ED
:100B60009000D0939D00C0939C00ABCF8091A000DB
:100B700080688093A0008091A0008F7B8093A0006C
:100B8000D093A900C093A8009CCF8091A000806260
:100B90008093A000D093AB00C093AA0092CF809125
:100BA000A00088608093A000D093AD00C093AC00FB
:100BB00088CF80912001806880932001D093290103
:100BC000C09328017ECF8091200180628093200114
:100BD000D0932B01C0932A0174CF809120018860AB
:100BE00080932001D0932D01C0932C016ACFC0388F
:100BF000D1050CF03ECF33CF3FB7F8948091030C72
:100C00009091040CA091050CB091060C26B5A89B00
:100C100005C02F3F19F00196A11DB11D3FBFBA2F8E
:100C2000A92F982F8827BC01CD01620F711D811D4E
:100C3000911D42E0660F771F881F991F4A95D1F7D3
:100C400008958F929F92AF92BF92CF92DF92EF92D0
:100C5000FF924B015C010E94FC056B017C010E942C
:100C6000FC056C197D098E099F09683E734081055A
:100C70009105A8F321E0821A9108A108B10888EE35
:100C8000C80E83E0D81EE11CF11C81149104A1045C
:100C9000B10429F7FF90EF90DF90CF90BF90AF9015
:100CA0009F908F9008952FB7F8946091FF0B7091EB
:100CB000000C8091010C9091020C2FBF0895AF920F
:100CC000BF92CF92DF92EF92FF920F931F93CF9339
:100CD000DF93D0906D108091701090917110A09161
:100CE0007210B0917310892B8A2B8B2BD9F00E9434
:100CF000FC050091691010916A1020916B103091E1
:100D00006C10601B710B820B930B00917010109193
:100D10007110209172103091731060177107820763
:100D20009307C8F20E94FC056093691070936A10E3
:100D300080936B1090936C10E0917810F091791083
:100D4000309759F040917410509175106091761061
:100D5000709177108D2D1995D82EC0916710D09174
:100D6000681087E4E82E80E1F82E8701209749F18A
:100D700080E10736180729F18D858823F1F0E88195
:100D8000F981A284B3840680F781E02DCE01199504
:100D9000BC01CE01F5011995F80191838083809102
:100DA0006E1090916F108436910508F41C860C80AB
:100DB000DD81C02D0E5F1F4FD9CFF8011182108247
:100DC000EECFC0916710D091681000E110E020973D
:100DD000A9F08D85882361F04E855F856A817B81CE
:100DE000E881F9810280F381E02D2D2DCE01199546
:100DF0000C80DD81C02D0150110949F7C0916710A9
:100E0000D09168102097C9F0F7E6EF16F0E1FF06E1
:100E1000A1F08D85882351F0F70160817181E8810F
:100E2000F9810484F585E02DCE0119950C80DD81D2
:100E3000C02DF2E0EF0EF11CE5CF809145109091AE
:100E40004610EC012196D0934610C0934510499767
:100E5000E4F10E945306009141101091421020913C
:100E60004310309144106B017C01C01AD10AE20A90
:100E7000F30AA7019601211531054105510521F419
:100E800021E030E040E050E088EE93E0C89FB00100
:100E9000C99F700DD89F700D1124072E000C880B70
:100EA000990B0E94374130936F1020936E1010926F
:100EB0004610109245100E945306609341107093A3
:100EC00042108093431090934410DF91CF911F9173
:100ED0000F91FF90EF90DF90CF90BF90AF9008956B
:100EE000CF93DF9300D0CDB7DEB76930710580F0C6
:100EF00019821A821B82BE016F5F7F4F0E947603A8
:100F00000E945F060F900F900F90DF91CF91089590
:100F1000FC0190E080E0DB01AA0FBB1FA60FB71F0A
:100F2000AB52BD4F6817790769F42D913D914C91F3
:100F3000129720833183428301963396893091053D
:100F400089F7DECF108211821282F6CF0895DC017C
:100F5000ED91FC910190F081E02D1994EF92FF92B8
:100F60000F931F93CF93DF937C01609120128091A8
:100F70001D1290911E120E94A70700911D12109140
:100F80001E12E701FE016491662359F0D801ED912C
:100F9000FC910190F081E02DC80119952196892BD3
:100FA00089F7DF91CF911F910F91FF90EF900895F6
:100FB000AF92BF92CF92DF92EF92FF920F931F9367
:100FC000CF93DF936C017B018B01040F151FEB01A5
:100FD0005E01AE18BF08C017D10759F06991D6015C
:100FE000ED91FC910190F081E02DC6011995892BBE
:100FF00079F7C501DF91CF911F910F91FF90EF908D
:10100000DF90CF90BF90AF900895FC01538D448D39
:10101000252F30E0842F90E0821B930B541710F0A3
:10102000CF96089501970895FC01918D828D9817B0
:1010300079F0A28DAE0FBF2FB11D5D962C91828DE0
:101040008F5F60E60E947841928F822F90E0089532
:101050008FEF9FEF0895FC01918D828D981731F0ED
:10106000828DE80FF11D858D90E008958FEF9FEF41
:101070000895FC01918D228D892F90E0805A9F4F19
:10108000821B910960E670E00E94844108958FE818
:1010900090E10E94390821E0892B09F420E0822F99
:1010A0000895FC01A48DA80FB92FB11DA358BF4FFF
:1010B0002C91848D90E001968F739927848FA68957
:1010C000B7892C93A089B1898C91837080648C93AB
:1010D000938D848D981306C00288F389E02D80815A
:1010E0008F7D80830895EF92FF920F931F93CF938C
:1010F000DF93EC0181E0888F9B8D8C8D98131AC053
:10110000E889F989808185FF15C09FB7F894EE8939
:10111000FF896083E889F989808183708064808396
:101120009FBF81E090E0DF91CF911F910F91FF90E1
:10113000EF900895F62E0B8D10E00F5F1F4F0F7389
:101140001127E02E8C8D8E110CC00FB607FCFACF44
:10115000E889F989808185FFF5CFCE010E94510889
:10116000F1CFEB8DEC0FFD2FF11DE358FF4FF08217
:101170009FB7F8940B8FEA89FB8980818062CFCF7B
:10118000CF93DF93EC01888D8823B9F0AA89BB89BE
:10119000E889F9898C9185FD03C0808186FD0DC0A9
:1011A0000FB607FCF7CF8C9185FFF2CF808185FFCA
:1011B000EDCFCE010E945108E9CFDF91CF91089584
:1011C00080E090E0892B29F00E94470881110E945D
:1011D000000080E090E0892B49F080E090E0892BCE
:1011E00029F00E94000081110E94000080E090E040
:1011F000892B49F080E090E0892B29F00E940000C3
:1012000081110E94000080E090E0892B49F080E08D
:1012100090E0892B29F00E94000081110C940000BD
:101220000895AF92BF92CF92DF92EF92FF920F9309
:101230001F93CF93DF9300D0CDB7DEB75A01198249
:101240001A821B82882361F18B01E1E0F0E0E82E35
:10125000F12CD8012D918D012223F1F06F01B1E025
:10126000CB1AD108D501AC0DBD1D4C914423A1F082
:1012700030E02F5F3F4FD7010E945941A42FB0E0CB
:1012800011969B01AC010E942441A1E0B0E0AC0F9B
:10129000BD1FAC0DBD1D8C933196E430F105C9F630
:1012A00069817A818B810F900F900F90DF91CF91A0
:1012B0001F910F91FF90EF90DF90CF90BF90AF9074
:1012C0000895FC018BEA92E091838083138212825D
:1012D0008FEF86838783808781878287838781E0FA
:1012E000848785871786168680E797E1918B808BA8
:1012F00083E090E0938B828B158A148A1582148286
:101300008091671090916810892B21F4F0936810F8
:10131000E0936710A091CE0BB091CF0B109721F006
:101320001596FC93EE931497F093CF0BE093CE0BAE
:10133000089581E090E00895AF92BF92CF92DF923E
:10134000EF92FF920F931F93CF93DF936B017A017C
:10135000EC01C653D44F28813CE0389F8001399F6F
:10136000100D1124A090C90BB12C27FF1FC0FB0149
:101370001182108288818F5F888388819801280F6D
:10138000311D87FD3A95F6012A153B051CF488812D
:101390008C30C4F180819181049680349C4908F49A
:1013A00073C0F60180819181049670C08881980194
:1013B000280F311D87FD3A952A153B05DCF68881FB
:1013C000A801480F511D87FD5A95FA01EE0FFF1F26
:1013D000E40FF51FE75CF44F808186FFCBCF888157
:1013E000F801E80FF11D87FDFA95CF01EE0FFF1F01
:1013F000E80FF91FE75CF44F808160E08F730E9473
:10140000BB04B8CF808191812881A801420F511D72
:1014100027FD5A959A01FA01EE0FFF1FE20FF31F05
:10142000E75CF44F21813281820F931FF701918392
:10143000808388819801280F311D87FD3A95F90135
:10144000EE0FFF1FE20FF31FE75CF44F808186FF72
:1014500022C08881080F111D87FD1A95F801EE0F33
:10146000FF1FE00FF11FE75CF44F808161E08F7395
:10147000DF91CF911F910F91FF90EF90DF90CF9070
:10148000BF90AF900C94BB0480E49CE9F70191837A
:1014900080838FEF8883DF91CF911F910F91FF9011
:1014A000EF90DF90CF90BF90AF9008950895209176
:1014B000140B260F3327331F21323105ECF4209112
:1014C0002D0CFC0190E080E0243069F082E008956A
:1014D000A091140B2191AC014E50554FA40FB52F84
:1014E000B11D2C930196861798F38091140B680F09
:1014F0006093140B80E0089581E0089510922D0C04
:1015000081E080932C0C1092070C61E084E10E9432
:10151000BB0461E085E10E94BB04E9EBF0E080815F
:101520008E7F808380818D7F808388E48093B80064
:1015300085E48093BC000895CF93DF9391E090936E
:10154000F10A8823B9F0C091B800D091BA00809117
:10155000BC008A7B8093BC0060E084E10E94BB04F5
:1015600060E085E10E94BB040E947E0AD093BA002D
:10157000C093B800DF91CF9108958F929F92AF9260
:10158000BF92CF92DF92EF92FF920F931F93CF9370
:10159000DF93D091560CD13208F0D7C0182FC091EC
:1015A000550C0E94FC056B017C0180912D0C811172
:1015B0006BC082E080932D0C10932C0C8FEF8093E6
:1015C0002B0C10922A0CD093290CA5E3BCE0E9E087
:1015D000FCE080E0D81391C01092080C8091080CB8
:1015E000CC0FC82BC093080C8091070C813009F0F8
:1015F00088C01092070C0E94FC056B017C01809151
:10160000080C8093BB0080912F0C9091300CA0911E
:10161000310CB091320C892B8A2B8B2BA1F00E94BC
:10162000FC0500912F0C1091300C2091310C309161
:10163000320C6C197D098E099F09061717072807B8
:10164000390708F442C08091BC0083FDD8CF85ECF7
:101650008093BC000E94FC056B017C0180912D0CE5
:10166000823009F450C080912B0C8F3F09F46FC079
:1016700080912B0C803209F46CC080912B0C80334C
:1016800009F469C084E026C080912F0C9091300C41
:10169000A091310CB091320C892B8A2B8B2B09F441
:1016A00084CF0E94FC0580902F0C9090300CA0906D
:1016B000310CB090320C6C197D098E099F09861689
:1016C0009706A806B90608F070CF80912E0C0E94EC
:1016D0009C0A85E01092340C1092560C1092330C38
:1016E000DF91CF911F910F91FF90EF90DF90CF90FE
:1016F000BF90AF909F908F9008959D9191938F5F31
:1017000069CF85EEA5CF80912F0C9091300CA091E0
:10171000310CB091320C892B8A2B8B2B09F49ECF84
:101720000E94FC0500912F0C1091300C2091310C7F
:101730003091320C6C197D098E099F090617170725
:101740002807390708F08ACFC0CF81E0C3CF80E0F7
:10175000C1CF82E0BFCF83E0BDCF81E00C94BD0A52
:1017600008950895E091F00A8091EF0AE81730F4A7
:10177000F0E0E153F54F808190E008958FEF9FEF07
:1017800008959091F00A8091EF0A2FEF3FEF98179C
:1017900048F4E92FF0E0E153F54F208130E09F5FFE
:1017A0009093F00AC90108958091EF0A9091F00A90
:1017B000891B990B0895CF92DF92EF92FF920F93BE
:1017C0001F93CF93DF937C01CB018A012091330CCF
:1017D000222389F0EB016B01C40ED51ECC15DD056B
:1017E00069F06991D701ED91FC910190F081E02DB4
:1017F000C7011995F3CF642F0E94570AC801DF91E2
:10180000CF911F910F91FF90EF90DF90CF900895AF
:10181000CF93DF931F92CDB7DEB769832091330C4E
:101820002223F9F02091560C203258F021E030E0CC
:10183000FC013383228390E080E00F90DF91CF9111
:1018400008958091340CE82FF0E0EB5CF34F998120
:1018500090838F5F8093340C8093560C81E090E0EE
:10186000ECCF61E0CE0101960E94570AF7CF682FB6
:101870008AE790E10C94080CCF93C82F846090E025
:101880000E94370C8C2F90E08B7FCF910C94370CFB
:101890000F931F93CF93DF938C01C62FD42FFC019E
:1018A000848191E09093330C8093550C1092340C0A
:1018B0001092560C862F807F842B9585892B0E9451
:1018C0003C0CF0E1CF9FC0011124F8019585892BD4
:1018D0008D2B0E943C0CDF91CF911F910F910C94A6
:1018E000AD0BCF93DF9300D000D01F921F92CDB7E6
:1018F000DEB728E0E4E3F2E0DE01119601900D92FC
:101900002A95E1F7FC012385241710F44FEF420FCD
:1019100050E0440F551F21E030E02C0F3D1F420FD7
:10192000531FFA012081620F606840E028960FB6CD
:10193000F894DEBF0FBECDBFDF91CF910C94480C61
:10194000CF93DF93EC0140E061E00E94480C8BE311
:101950009FE10197F1F78985882339F040E060E045
:10196000CE01DF91CF910C94710CDF91CF9108954E
:1019700041E00E94480C81E090E00895FC01248140
:1019800031E03093330C2093550C1092340C1092AC
:10199000560C607F8585862B0E943C0C0C94AD0B09
:1019A000AF92BF92CF92DF92EF92FF920F931F936D
:1019B000CF93DF936C01FC01848191E09093330C11
:1019C0008093550C1092340C1092560CEB01042F9E
:1019D00010E05B01A00EB11EF12CEE24E394CA15B9
:1019E000DB0541F18991F60195859160807F892B16
:1019F0000E943C0CFE0131972081F0E12F02900102
:101A00001124F60185858160822B0E943C0CF394A1
:101A1000F7E0FF1520F780E00E94BD0AF6018481FF
:101A2000E092330C8093550C1092340C1092560CAB
:101A3000F12CD5CF0E94AD0BC8010197DF91CF915A
:101A40001F910F91FF90EF90DF90CF90BF90AF90DC
:101A5000089528E0FC012587848191E09093330C60
:101A60008093550C1092340C1092560C88E090E044
:101A70000E94370C0C94AD0B90E080E00895CF935A
:101A8000DF93FC012381222359F1EC0161E0848181
:101A90000E94E90461E08D810E94E9048B81843019
:101AA00011F08830B1F461E08E810E94E90461E0B8
:101AB0008F810E94E9048FA58F3F91F061E00E9421
:101AC000E9046EA581E068278FA5DF91CF910C9482
:101AD000BB04833011F0863071F761E08E81E9CF6D
:101AE000DF91CF910895CF93DF93FC0123812223CF
:101AF000A9F0EC010190F081E02D0480F581E02D4A
:101B000060E019958FA58F3F49F061E00E94E904DC
:101B10006EA58FA5DF91CF910C94BB04DF91CF917F
:101B20000895DC01ED91FC91119724813581477076
:101B300055276627772741505109610971094730B8
:101B400051056105710570F4FA018827E555F24FDA
:101B50008F4F0C94AC41B60DB80DBA0DBC0DBE0D37
:101B6000C00DC20D61E0CD01F901199465E0FBCF14
:101B700064E0F9CF66E0F7CF62E0F5CF6AE0F3CF3B
:101B800068E0F1CF69E0EFCFCF93DF93EC01CB01B9
:101B9000BA0126E030E040E050E00E9405416230AA
:101BA00071058105910589F16CF461157105810557
:101BB0009105D1F06130710581059105F9F0DF9152
:101BC000CF910895643071058105910561F124F18B
:101BD000653071058105910591F7E881F9810480EF
:101BE000F581E02D66E006C0E881F9810480F58189
:101BF000E02D64E0CE01DF91CF911994E881F98165
:101C00000480F581E02D65E0F5CFE881F98104805D
:101C1000F581E02D61E0EECFE881F9810480F58166
:101C2000E02D63E0E7CFE881F9810480F581E02DC4
:101C300062E0E0CFDC01ED91FC910480F581E02DC4
:101C40004370552766277727423051056105710596
:101C500071F0433051056105710559F0413051056E
:101C60006105710511F065E0199466E0FDCF6AE049
:101C7000FBCF69E0F9CFCF93DF93EC01CB01BA0141
:101C800023E030E040E050E00E9405416130710502
:101C90008105910599F06230710581059105A9F0E2
:101CA000672B682B692BC1F4E881F9810480F581E9
:101CB000E02D64E0CE01DF91CF911994E881F981A4
:101CC0000480F581E02D61E0F5CFE881F9810480A1
:101CD000F581E02D62E0EECFDF91CF910895DC0138
:101CE000ED91FC910480F581E02D43705527662726
:101CF0007727423051056105710571F04330510578
:101D00006105710559F0413051056105710511F00A
:101D100062E0199463E0FDCF61E0FBCF60E0F9CFB2
:101D2000CF93DF93EC01E881F9810480F581E02D08
:101D30008A8160E0811162E0CE011995E881F98124
:101D40000480F581E02D8A8161E0811163E0CE019C
:101D500019958CA59DA58230910538F0880F991FA3
:101D6000880F991F05970197F1F7E881F9810480A1
:101D7000F581E02D8A8160E0811162E0CE01DF9182
:101D8000CF911994CF93DF93EC0120E030E0A901CB
:101D90006C897D898E899F890E94D04218162CF407
:101DA000E8A9F9A9DF91CF911994EAA9FBA9FACF83
:101DB000CF92DF92EF92FF920F931F93CF93DF9317
:101DC000DC011396CC91C43039F0C83059F1C330DE
:101DD00019F0C63049F1C2E08C010C5F1F4FF12CA5
:101DE000E12CC62ED12CD1E0F8016481C6010E2C65
:101DF00002C0959587950A94E2F780FD6D270F5FE5
:101E00001F4F80810E94BB04BFEFEB1AFB0AEC1648
:101E100058F3DF91CF911F910F91FF90EF90DF90DA
:101E2000CF900895C4E0D8CFC3E0D6CFDC0113969D
:101E3000EC911397E93008F042C0F0E08827EC5DA0
:101E4000F04F8F4F0C94AC412D0F350F3C0F430FCB
:101E50004A0F5F0F510F5F0F580FED91FC911197D3
:101E60000084F185E02DCD011994ED91FC9111973D
:101E70000284F385E02DF7CFED91FC911197048456
:101E8000F585E02DF0CFED91FC9111970684F78553
:101E9000E02DE9CFED91FC9111970088F189E02DBB
:101EA000E2CFED91FC9111970288F389E02DDBCF11
:101EB000ED91FC9111970488F589E02DD4CF089518
:101EC0004F925F926F927F928F929F92AF92BF924A
:101ED000CF92DF92EF92FF920F931F93CF93DF93F6
:101EE000EC01C888D988EA88FB888C859D85AE85F9
:101EF000BF85C81AD90AEA0AFB0A6C897D898E89CE
:101F00009F899B01AC010E9431404B015C016C8DAB
:101F10007D8D8E8D9F8D9B01AC010E94BC419B01EC
:101F2000AC01C501B4010E9428420E949A42C1142A
:101F3000D104E104F10409F0B1C0623071058105FA
:101F400091050CF0CBC01CA21DA21EA21FA21C8AD0
:101F50001D8A1E8A1F8A1CAA1DAA1EAA1FAADF91FB
:101F6000CF911F910F91FF90EF90DF90CF90BF9096
:101F7000AF909F908F907F906F905F904F9008955B
:101F80001016110612061306B4F46C157D058E05A5
:101F90009F051CF42A812111A1C09B01AC01882757
:101FA0009927DC01821B930BA40BB50B8CAB9DAB6B
:101FB000AEABBFAB93C0011511052105310509F486
:101FC0008DC06C157D058E059F050CF087C08A813C
:101FD000882309F483C030952095109501951F4FF3
:101FE0002F4F3F4F0CAB1DAB2EAB3FAB77C0011556
:101FF00011052105310509F471C088249924540183
:102000008C189D08AE08BF08681579058A059B05E0
:102010000CF064C08A81811161C0DDCFCCACDDAC35
:10202000EEACFFACA7019601C701B6010E94BC410E
:102030002B013C01C501B4010E94D23F20E030E0F9
:1020400040E850E40E94314020E030E040E85FE3A7
:102050000E94BC419B01AC01C301B2010E94284215
:102060009B01AC01C701B6010E94BB413B016C0161
:10207000FE01E05CFF4FE080F18002811381970157
:10208000A8010E94D042181614F473018601C701FA
:10209000D8018CAF9DAFAEAFBFAF3AC00CA91DA9A0
:1020A0002EA93FA91C141D041E041F040CF468CFA4
:1020B00010161106120613060CF099CF00271127EF
:1020C00098010C191D092E093F0960177107820735
:1020D00093070CF062CF2A8121115FCF8CA89DA8B5
:1020E000AEA8BFA881149104A104B10409F096CF51
:1020F00088AD99ADAAADBBAD8CAF9DAFAEAFBFAF54
:1021000081E01C141D041E041F040CF080E08A836F
:102110003FEF831A930AA30AB30A8CAA9DAAAEAA18
:10212000BFAACCACDDACEEACFFACC701B6010E94DF
:10213000A1426CA37DA38EA39FA3A701960160E09B
:1021400074E284E799E40E9428426C8B7D8B8E8B2D
:102150009F8B2A81211103CF90586C8B7D8B8E8BA6
:102160009F8BFDCECF92DF92EF92FF920F931F9342
:10217000CF93DF93EC016A017B0120E030E0A901FD
:10218000CB01B6010E94CB3F87FF04C0F7FAF09461
:10219000F7F8F094A7019601688D798D8A8D9B8D53
:1021A0000E94CB3F882309F446C0C88ED98EEA8EA0
:1021B000FB8E8E01005C1F4FA701960160E074E268
:1021C00084E799E40E942842F80160837183828346
:1021D00093838CA99DA9AEA9BFA9181619061A0642
:1021E0001B064CF56C897D898E899F899B01AC010A
:1021F0000E9431406B017C016C8D7D8D8E8D9F8D99
:102200009B01AC010E94BC419B01AC01C701B6011E
:102210000E9428420E949A426CAB7DAB8EAB9FAB72
:10222000CE01DF91CF911F910F91FF90EF90DF9042
:10223000CF900C94600FDF91CF911F910F91FF9081
:10224000EF90DF90CF9008958F929F92AF92BF92C0
:10225000EF92FF920F931F93CF937C018B01C42FBA
:102260000E945306F80180809180A280B380DC0137
:10227000CB0188199909AA09BB094C2F50E070E0DD
:1022800060E084179507A607B70748F0F70119958E
:102290000E945306F8016083718382839383CF91F8
:1022A0001F910F91FF90EF90BF90AF909F908F90F4
:1022B00008952091C10A3091C20A280F391F81E088
:1022C0002134364008F080E00895FC0180818823A5
:1022D000F9F084818823E1F08181811119C081E0C6
:1022E000818382819381FC0140895189628973894C
:1022F000403659476E4F7F4F59F040E659E76EEF31
:102300007FEFFC01408B518B628B738B0C94600FC1
:1023100008954F925F926F927F928F929F92AF92A9
:10232000BF92CF92DF92EF92FF920F931F93CF93C2
:10233000DF93D12CA7E1CA2E08E810E0B8E5EB2E18
:10234000B2E0FB2EC4EB4C2E512C612C712C8091F1
:102350008004D81608F096C0C0917E04D0917F0406
:10236000DC9CC00DD11D112489899A89AB89BC8957
:102370004D855E856F85788984179507A607B70711
:1023800009F47AC0481759076A077B070CF076C032
:102390000197A109B109898B9A8BAB8BBC8BA98959
:1023A000BA89A03282E0B807ACF52B854801821AC1
:1023B000910827FD9394880C991C880C991C092C72
:1023C000000CAA08BB082C85C701821B910927FDB8
:1023D00093959C01220F331F220F331F032E000CF5
:1023E000440B550B281939094A095B09A53BB1056E
:1023F00014F0A4EBB0E0B7FF02C0B0E0A0E00E9490
:102400002F41A30192010E940541820E931EA41E3A
:10241000B51ED401EA85E03378F52B85C801821B0F
:10242000910927FD93959C01220F331F220F331F23
:10243000A217B3077CF02C85C701821B910927FDE9
:1024400093959C01220F331F220F331FA217B3074E
:102450000CF49D0122503109220F331F4FB7F8941D
:102460008E2F90E0FC01EE0FFF1FE80FF91FE75CD5
:10247000F44F328321834FBFD39469CF0196A11DBE
:10248000B11D89CFDF91CF911F910F91FF90EF90F8
:10249000DF90CF90BF90AF909F908F907F906F9084
:1024A0005F904F9008958BE891E00197F1F70895C0
:1024B000EF92FF920F931F93CF93DF93EC01162FB0
:1024C000E42EFF24F394442311F080E8F82E08E072
:1024D00061E08A810E94E9040E94531261E08F2D1D
:1024E000812309F060E089810E94E9040E9453126F
:1024F00060E08A810E94E9040E945312EE2081F17B
:10250000110F015029F761E08A810E94E90460E01F
:1025100089810E94E9040E94531260E08A810E942E
:10252000E9040E94531289810E949204182F81119C
:1025300004C061E089810E94E9040E94531261E0B5
:102540008A810E94E9040E94531281E0111101C0A6
:1025500080E0DF91CF911F910F91FF90EF90089550
:102560001695CFCFCF93DF93EC0161E089810E9474
:10257000E9040E94531260E08A810E94E9040E94EB
:10258000531260E089810E94E904DF91CF910C949D
:10259000531261E0FC0181810E94E9040C94531202
:1025A000AF92BF92CF92DF92EF92FF920F931F9361
:1025B000CF93DF93EC01162F042FAE800E94C91237
:1025C00040E060E4CE010E945812CE010E94B21297
:1025D00010958E81180FC02ED12CE12EF12C84E0A5
:1025E000B12EA81631F0F601EE0DFF1DE056FD4F9D
:1025F000B080CE010E94C91260EC6B0D40E0CE01AC
:102600000E9458128E81CE0CDF1C8C151D0414F410
:10261000082F011B10E0DD24DA94D00E0117A1F081
:1026200084E0ED2DE11BA81201C0E12F8C819D817A
:102630008E0D9F1DE80FF92FF11D41E06081CE0145
:102640000E9458121F5FEACFCE01DF91CF911F91F8
:102650000F91FF90EF90DF90CF90BF90AF900C94D0
:10266000B212FC01618380816F3F19F461E00C9428
:10267000BB046623E1F370E00C942505EF92FF9212
:102680001F93CF93DF93EC01162F8C8180FF10C036
:10269000603170F46D837E0184E0E80EF11C612FDF
:1026A000617089910E94BB041695EC16FD06B9F77E
:1026B000DF91CF911F91FF90EF900895FC01842F3F
:1026C00040815181E0917C04F0917D0419944F92F6
:1026D0005F926F927F928F929F92AF92BF92CF92B2
:1026E000DF92EF92FF920F931F93CF93DF93F12C22
:1026F0006FE1E62E80917704F81608F0EAC0C091E9
:102700007504D0917604FE9CC00DD11D11248A81E0
:10271000882309F4B2C088810E9492048C018981C7
:102720000E9492046C010E9453064B015C0181E0FF
:1027300090E0CD2811F090E080E0880F991F21E013
:10274000012B09F020E0922F982B4B8D5C8D6D8D25
:102750007E8D95018401041B150B260B370BB901E7
:10276000A801453651056105710508F488C08885C2
:10277000823008F484C08B8E9C8EAD8EBE8E8150CC
:102780008887EE859E1709F445C0888503E310E02D
:10279000873010F401E010E06D8524E0E202F001E2
:1027A0001124492F092E000C550BE42BF52BEF5665
:1027B000FD4F708170039001719F300D1124062E22
:1027C00002C0220F331F0A94E2F7EF85F8892E0F1B
:1027D0003F1F388B2F874C0F5D1FFA014185442323
:1027E000C1F04B885C886D887E884F8A588E698ED0
:1027F0007A8E8B8A9C8AAD8ABE8A02C035952795CF
:102800006A95E2F73A8B298B8C3008F08BE08F5F6A
:1028100088879E8709891A898D819E8108171907E3
:1028200061F19801281B390BC901E0917304F09103
:1028300074046901CC0CDD1C309709F447C06B812E
:102840007C812F5C3F4F23363105D0F597FD2FC09B
:1028500080E01995C00ED11E31E4C3163FE1D306C6
:1028600054F08F85988983709927988B8F871A8A5F
:10287000198A10E000E01E830D83F3943BCF4F894B
:10288000588D698D7A8D95018401041B150B260BDB
:10289000370BB901A801453F51406105710508F4A6
:1028A00070CF8B8E9C8EAD8EBE8E18866ACF82E0E6
:1028B0001995C8018C199D09803C904E94F2DBCF8C
:1028C00097FD02C081E0C5CF83E0F2CF37FDF1CFA5
:1028D000C1CFDF91CF911F910F91FF90EF90DF90CB
:1028E000CF90BF90AF909F908F907F906F905F90B0
:1028F0004F900895CF92DF92EF92FF920F931F9324
:10290000CF93DF936C017A018091710490917204EE
:10291000892B31F1D60113968C9100E181FD08E0FD
:10292000EB01CE25DF2510E0C0FF13C080917104BC
:1029300090917204892B69F0E0916F04F09170041A
:10294000309739F0D6014D915C91612F8E2D8170B9
:102950001995D695C795F694E7941F5F0113E4CFB8
:10296000DF91CF911F910F91FF90EF90DF90CF906B
:102970000895AF92BF92CF92DF92EF92FF920F93A2
:102980001F93CF93DF931F92CDB7DEB7C090710432
:10299000D0907204C114D10409F43FC0FC0123811A
:1029A00030E1B32E21FF02C028E0B22EA62E8C010A
:1029B000F60185818683F12CE12CBA946B2DC6013A
:1029C0000E943E13F80182810E9492048983F801DB
:1029D00082810E9492048983EE0CFF1C298181E090
:1029E00090E0211102C090E080E0E82AF92AB110BD
:1029F000E4CFF6016681C6010E943E13F8016481AE
:102A000075816E157F0549F0AA2021F0A701C80144
:102A10000E947A14F801F582E4820F90DF91CF9141
:102A20001F910F91FF90EF90DF90CF90BF90AF90EC
:102A30000895CF93DF93C0E0D6E080916E04C8176D
:102A400068F480916C0490916D0461E0CD9F800DDD
:102A5000911D11240E94B914CF5FEFCFDF91CF9168
:102A60000895E0916A04F0916B04309751F0DC0115
:102A700014962C911497222321F06D917C9181E082
:102A800019940895E0916A04F0916B04309751F025
:102A9000DC0114962C911497211104C06D917C9146
:102AA00080E0199408950F931F93CF93DF9310E064
:102AB00005E080916904181730F5C0916704D09142
:102AC0006804109FC00DD11D11248B81882399F0BB
:102AD0008A810E9492049C81891769F091E081119A
:102AE00001C090E09C839B81811107C0992319F05C
:102AF000CE010E9442151F5FDCCF9923E1F3CE0186
:102B00000E943115F8CFDF91CF911F910F91089559
:102B1000FC01A08DB0E01396AA0FBB1FA80FB91F30
:102B2000868997892D913C91821B930B978B868B7D
:102B30008281863308F0865320917B00982F98700D
:102B4000277F922B90937B008770806480937C001A
:102B500080917A00806480937A0080917A0086FD6B
:102B6000FCCF8091780090917900A08DB0E0139611
:102B7000AA0FBB1FAE0FBF1F8D939C93A08DB0E01B
:102B80001396AA0FBB1FAE0FBF1F868997892D9181
:102B90003C91820F931F978B868B808D8F5F808FE8
:102BA000808D8770808F0895CF93DF93C0E0DEE142
:102BB00080916604C81778F480916404909165044C
:102BC000CD9F800D911D1124FC01258D21110E94A6
:102BD0008815CF5FEDCFDF91CF910895CF93DF932D
:102BE000C0E0DEE180916604C817C8F5A0916404D6
:102BF000B0916504CD9FA00DB11D11245D968C91FF
:102C00005D97882351F156968D919C91579723E0BB
:102C1000969587952A95E1F713962D913C911497F7
:102C2000AC01421B530B9A0157FF03C0319521950C
:102C3000310915964C9115974217130609F06CF45B
:102C400014969C938E931397E0916204F091630421
:102C5000309719F06D917C911995CF5FC3CFDF91BB
:102C6000CF910895EF92FF920F931F93CF93DF932D
:102C7000CDB7DEB76E970FB6F894DEBF0FBECDBFEF
:102C8000F090660490916104F91609F446C0FE01C3
:102C9000379690E1DF011D929A95E9F7188E1F8A09
:102CA000198E1E8E9EE10091640410916504F99EB8
:102CB000000D111D11243697D80101900D929A959F
:102CC000E1F7F8014583828371836083222319F041
:102CD00062E00E94E90438E0E32ED8015D968C9111
:102CE000882319F0C8010E948815EA94E110F5CFF5
:102CF000F8018689978923E0969587952A95E1F7CB
:102D00009483838381E0858F8AEF95E290936304B7
:102D100080936204F394F09266046E960FB6F89472
:102D2000DEBF0FBECDBFDF91CF911F910F91FF90FE
:102D3000EF9008950F931F93CF93DF932091140486
:102D40002F5F322F37703093140420FF2BC020E800
:102D500031FD2064347009F02062205FFC01EC0139
:102D6000239600E011E06785662329F070E0C80132
:102D70000E9498416F5F6187822F869F080E80E0D6
:102D8000811D1124811110C01682662311F061503B
:102D900061873196EC17FD0731F7DF91CF911F91D5
:102DA0000F91089520E0D4CF81508683EECF4F92CB
:102DB0005F927F928F929F92AF92BF92CF92DF925B
:102DC000EF92FF920F931F93CF93DF932C01EB01B0
:102DD0000E94FC05F20126893789621B730B6A3059
:102DE0007105B0F3F8948A819B81181619060CF0CE
:102DF000EAC1E881F98160910201606130910201CC
:102E00003F7E30930201DA848F812D2D281B822F83
:102E10002F834C85042E000C550BAA81BB81788929
:102E2000FF84E98888248394870EF394E3949E8139
:102E30009884B984AB841181C12C7C2D0C2D2C2D50
:102E40002181112788942111280F08F42FEF8195F3
:102E5000889480FC120F1795889481FC120F1795A7
:102E6000889482FC120F1795889483FC120F179593
:102E7000889484FC120F1795889485FC120F17957F
:102E8000889486FC120F1795889487FC120F17956B
:102E90008894722F8110712F8D0D172F002C609345
:102EA0000201002C17FF30930201208177278894BC
:102EB00000C000C0309302012111290F00C06093AF
:102EC0000201002C16FF3093020108F42FEF9195B8
:102ED000889400C000C030930201F0FC720F00C063
:102EE00060930201002C15FF3093020177958894BE
:102EF000F1FC720F00C000C03093020177958894F6
:102F000000C060930201002C14FF30930201F2FC18
:102F1000720F7795889400C000C030930201F3FCD3
:102F2000720F00C060930201002C13FF3093020166
:102F300077958894F4FC720F00C000C030930201B2
:102F40007795889400C060930201002C12FF3093A3
:102F50000201F5FC720F7795889400C000C0309391
:102F60000201F6FC720F00C060930201002C11FFF9
:102F70003093020177958894F7FC720F00C000C06F
:102F8000309302017795889400C060930201002C71
:102F900010FF30930201122FF110172F9B0D00C06C
:102FA00000C03093020100C000C060930201002CF9
:102FB00017FF3093020122817727889400C000C058
:102FC000309302012111290D00C060930201002CF1
:102FD00016FF3093020108F42FEFE40FF51F00C035
:102FE00000C030930201E0FC720F00C06093020148
:102FF000002C15FF3093020177958894E1FC720F45
:1030000000C000C0309302017795889400C060939F
:103010000201002C14FF30930201E2FC720F77953D
:10302000889400C000C030930201E3FC720F00C01E
:1030300060930201002C13FF30930201779588946E
:10304000E4FC720F00C000C03093020177958894B1
:1030500000C060930201002C12FF30930201E5FCD6
:10306000720F7795889400C000C030930201E6FC8F
:10307000720F00C060930201002C11FF3093020117
:1030800077958894E7FC720F00C000C0309302016E
:103090007795889400C060930201002C10FF309354
:1030A0000201122FE110172F919400C000C030933D
:1030B00002019A0C00C0002C60930201002C17FF43
:1030C0003093020121817727889400C000C030939B
:1030D00002012111280F00C060930201002C16FF8D
:1030E0003093020108F42FEF8195889400C000C04E
:1030F0003093020180FC720F00C060930201002C2B
:1031000015FF309302017795889481FC720F00C0FF
:1031100000C0309302017795889400C0609302014B
:10312000002C14FF3093020182FC720F7795889473
:1031300000C000C03093020183FC720F00C0609396
:103140000201002C13FF309302017795889484FCD0
:10315000720F00C000C0309302017795889400C0C0
:1031600060930201002C12FF3093020185FC720F64
:103170007795889400C000C03093020186FC720FDE
:1031800000C060930201002C11FF3093020177957B
:10319000889487FC720F00C000C0309302017795BD
:1031A000889400C060930201002C10FF309302014C
:1031B000122F8110172F8D0D00C000C03093020117
:1031C000119709F06CCEEA81FB812EE130E0DF013E
:1031D0000E94B44130E020E0A901AAE9EA9F0E0E66
:1031E000411DFA9F400D511D11244F0F511DDC014F
:1031F000CB01840F951FA11DB11D893E43E09407AB
:10320000A105B10508F434C0885E9340A109B10955
:1032100042E0B695A795979587954A95D1F747E0EF
:10322000849F080E211D949F200D311D1124290F0C
:10323000311D6091130470E0860F971F820F931F5A
:103240004091FF0B5091000C6091010C7091020CA9
:10325000292F3327420F531F611D711D4093FF0B10
:103260005093000C6093010C7093020C8093130434
:1032700078940E94FC05F201778B668BDF91CF91E9
:103280001F910F91FF90EF90DF90CF90BF90AF9084
:103290009F908F907F905F904F90089580E991E08C
:1032A0000895E1E0F1E080818061808308954F928C
:1032B0005F927F928F929F92AF92BF92CF92DF9256
:1032C000EF92FF920F931F93CF93DF932C01EB01AB
:1032D0000E94FC05F20126893789621B730B6A3054
:1032E0007105B0F3F8948A819B81181619060CF0C9
:1032F000EAC1E881F98160910201686030910201C0
:10330000377F30930201DA848F812D2D281B822F85
:103310002F834C85042E000C550BAA81BB81788924
:10332000FF84E98888248394870EF394E3949E8134
:103330009884B984AB841181C12C7C2D0C2D2C2D4B
:103340002181112788942111280F08F42FEF8195EE
:10335000889480FC120F1795889481FC120F1795A2
:10336000889482FC120F1795889483FC120F17958E
:10337000889484FC120F1795889485FC120F17957A
:10338000889486FC120F1795889487FC120F179566
:103390008894722F8110712F8D0D172F002C609340
:1033A0000201002C17FF30930201208177278894B7
:1033B00000C000C0309302012111290F00C06093AA
:1033C0000201002C16FF3093020108F42FEF9195B3
:1033D000889400C000C030930201F0FC720F00C05E
:1033E00060930201002C15FF3093020177958894B9
:1033F000F1FC720F00C000C03093020177958894F1
:1034000000C060930201002C14FF30930201F2FC13
:10341000720F7795889400C000C030930201F3FCCE
:10342000720F00C060930201002C13FF3093020161
:1034300077958894F4FC720F00C000C030930201AD
:103440007795889400C060930201002C12FF30939E
:103450000201F5FC720F7795889400C000C030938C
:103460000201F6FC720F00C060930201002C11FFF4
:103470003093020177958894F7FC720F00C000C06A
:10348000309302017795889400C060930201002C6C
:1034900010FF30930201122FF110172F9B0D00C067
:1034A00000C03093020100C000C060930201002CF4
:1034B00017FF3093020122817727889400C000C053
:1034C000309302012111290D00C060930201002CEC
:1034D00016FF3093020108F42FEFE40FF51F00C030
:1034E00000C030930201E0FC720F00C06093020143
:1034F000002C15FF3093020177958894E1FC720F40
:1035000000C000C0309302017795889400C060939A
:103510000201002C14FF30930201E2FC720F779538
:10352000889400C000C030930201E3FC720F00C019
:1035300060930201002C13FF309302017795889469
:10354000E4FC720F00C000C03093020177958894AC
:1035500000C060930201002C12FF30930201E5FCD1
:10356000720F7795889400C000C030930201E6FC8A
:10357000720F00C060930201002C11FF3093020112
:1035800077958894E7FC720F00C000C03093020169
:103590007795889400C060930201002C10FF30934F
:1035A0000201122FE110172F919400C000C0309338
:1035B00002019A0C00C0002C60930201002C17FF3E
:1035C0003093020121817727889400C000C0309396
:1035D00002012111280F00C060930201002C16FF88
:1035E0003093020108F42FEF8195889400C000C049
:1035F0003093020180FC720F00C060930201002C26
:1036000015FF309302017795889481FC720F00C0FA
:1036100000C0309302017795889400C06093020146
:10362000002C14FF3093020182FC720F779588946E
:1036300000C000C03093020183FC720F00C0609391
:103640000201002C13FF309302017795889484FCCB
:10365000720F00C000C0309302017795889400C0BB
:1036600060930201002C12FF3093020185FC720F5F
:103670007795889400C000C03093020186FC720FD9
:1036800000C060930201002C11FF30930201779576
:10369000889487FC720F00C000C0309302017795B8
:1036A000889400C060930201002C10FF3093020147
:1036B000122F8110172F8D0D00C000C03093020112
:1036C000119709F06CCEEA81FB812EE130E0DF0139
:1036D0000E94B44130E020E0A901AAE9EA9F0E0E61
:1036E000411DFA9F400D511D11244F0F511DDC014A
:1036F000CB01840F951FA11DB11D893E43E09407A6
:10370000A105B10508F434C0885E9340A109B10950
:1037100042E0B695A795979587954A95D1F747E0EA
:10372000849F080E211D949F200D311D1124290F07
:10373000311D6091130470E0860F971F820F931F55
:103740004091FF0B5091000C6091010C7091020CA4
:10375000292F3327420F531F611D711D4093FF0B0B
:103760005093000C6093010C7093020C809313042F
:1037700078940E94FC05F201778B668BDF91CF91E4
:103780001F910F91FF90EF90DF90CF90BF90AF907F
:103790009F908F907F905F904F900895E1E0F1E0CF
:1037A00080818860808308956F927F928F92CF92FC
:1037B000DF92EF92FF920F931F93CF93DF93CDB7DA
:1037C000DEB762970FB6F894DEBF0FBECDBF8C0197
:1037D0006B017A01822FA801475F5F4FB8016A5FD2
:1037E0007F4F0E9411093B01882ED8011C962C9115
:1037F000C701F7FE04C0882799278E199F09DA822E
:10380000C9829C838B839E838D83688A798A8A8A06
:10381000213049F5CE0101960E949A1683E08D87EA
:103820001F861E86F7FE02C08DEF8D87D801ED91B1
:10383000FC910088F189E02DBE016F5F7F4FC801C8
:10384000199562960FB6F894DEBF0FBECDBFDF911B
:10385000CF911F910F91FF90EF90DF90CF908F90BD
:103860007F906F9008951C861B861A86198618868D
:103870001F82D4CFCF92DF92EF92FF920F931F93CC
:10388000CF93DF93CDB7DEB762970FB6F894DEBF64
:103890000FBECDBF8C016B017A01822FA801475F5B
:1038A0005F4FB8016A5F7F4F0E9411099B01482F4B
:1038B000D8011C968C91DA82C982FC82EB82FE824E
:1038C000ED82288B398B4A8B813009F5CE01019628
:1038D0000E949A161D861F861E86D801ED91FC91C6
:1038E0000088F189E02DBE016F5F7F4FC8011995F7
:1038F00062960FB6F894DEBF0FBECDBFDF91CF91B9
:103900001F910F91FF90EF90DF90CF9008951C864C
:103910001B861A86198618861F82DCCF90E080E00D
:103920000895FC0164870895FC01848590E0089562
:10393000FC018685978508950F931F93CF93DF939E
:10394000C7E0D0E0082F10E0B8010C2E02C075953A
:1039500067950A94E2F7617083E30E94BB0461E01B
:1039600084E30E94BB0460E084E30E94BB042197CF
:1039700058F7DF91CF911F910F9108958F929F92E9
:10398000AF92BF92CF92DF92EF92FF926A017B01DA
:103990004701AA24BB2461E085E00E94BB0483E0C8
:1039A00090E00197F1F760E085E30E94BB04892D68
:1039B0000E949C1C882D0E949C1C8D2D0E949C1C8A
:1039C0008C2D0E949C1C61E085E30E94BB0461E099
:1039D00081E30E94BB048FE090E00197F1F760E083
:1039E00081E30E94BB0460E085E0FF90EF90DF90F0
:1039F000CF90BF90AF909F908F900C94BB040F938B
:103A00001F93CF93DF9300D0CDB7DEB78C0119821F
:103A10001A821B82BE016F5F7F4F80E394E00E9499
:103A2000760319821A821B82BE016F5F7F4F85E188
:103A300094E00E9476030E945F0640E050E0BA01E5
:103A4000C8010E94BE1C6FEF70E085E00E94250552
:103A5000F80110820F900F900F90DF91CF911F917E
:103A60000F9108950F931F93CF93DF93082F162F75
:103A7000D42FC8E06D2F661F6627661F802F0E9417
:103A8000BB04DD0F61E0812F0E94BB0460E0812F49
:103A90000E94BB04C15071F7DF91CF911F910F912C
:103AA00008950F931F93CF93DF93EC0160E088811B
:103AB0000E94BB040B8110E00150110950F0EC8111
:103AC000FD81E00FF11F408169818A810E94321DD2
:103AD000F3CF61E08881DF91CF911F910F910C941A
:103AE000BB049F92AF92BF92CF92DF92EF92FF9270
:103AF0000F931F93CF93DF93EC01C62E61E08B8170
:103B00000E94BB0461E08A810E94BB0410E08D81A9
:103B1000181708F044C0DB80BC8087E0E82EF12C49
:103B200000E061E08D2D0E94BB048B2D0E94920469
:103B30000E2C01C0880F0A94EAF7082B60E08D2D47
:103B40000E94BB0481E0E81AF10858F7A12EB12CBD
:103B5000EF81F885EA0DFB1DD080D016F1F0CC2066
:103B6000B9F0912E990C990C990CE02EF12C8D2D19
:103B70008E2580FF07C04E2D4170692D6F0DCE013F
:103B80000E945E13D694E694F39488E0F812EFCF87
:103B9000EF81F885EA0DFB1D00831F5FB8CF60E061
:103BA0008A81DF91CF911F910F91FF90EF90DF906D
:103BB000CF90BF90AF909F900C94BB04CF93DF93B6
:103BC000C0E0D9E080917B04C81768F48091790443
:103BD00090917A0461E0CD9F800D911D11240E9487
:103BE000711DCF5FEFCFDF91CF91089520918D10A0
:103BF00030918E108217930710F40C94EF4080E000
:103C00000895AF92BF92CF92DF92EF92FF920F93FF
:103C10001F93CF938B01C0908D10D0908E107B019D
:103C2000C0E05C012FEFA21AB20A0E94F61D282FF5
:103C3000CA14DB0458F480E0CF911F910F91FF90DC
:103C4000EF90DF90CF90BF90AF900895CF5FF701D6
:103C500081937F01C83279F3C5012E3211F7F80143
:103C6000EC0FF11D3197108281E0E6CFEF92FF92C9
:103C70000F931F93CF93DF93EC0100918D10109160
:103C80008E10888199817C012FEFE21AF20AF98265
:103C9000E8820E94F61D0E151F0540F480E0DF91BA
:103CA000CF911F910F91FF90EF900895E091570CE5
:103CB000F091580C9F012F5F3F4F3093580C209389
:103CC000570CE75AF34F8083283E334038F78A3346
:103CD000C1F6108281E0E3CFCF92DF92EF92FF92A4
:103CE0000F931F93CF93DF938C01C0908D10D090D2
:103CF0008E10C62FD0E0F801808191817C01FFEF0A
:103D0000EF1AFF0AF801F182E0820E94F61DCE143C
:103D1000DF0480F0082E000C990B8C179D0759F7D3
:103D200081E0DF91CF911F910F91FF90EF90DF9095
:103D3000CF90089580E0F5CF0E94AD03882359F01D
:103D400081E080931612809317128091181290913F
:103D500019120C943E3F1092171290E080E00895E3
:103D6000CF93DF930E949C1EEC010E949C1ECC0FFF
:103D7000DD1F2091C30A3091C40A682FC9018C0F3E
:103D80009D1FDF91CF910C9431130E949C1E909146
:103D9000DD0B891768F42091DB0B3091DC0BA90156
:103DA0006EE0869F400D511D1124CA010C946511CF
:103DB00008950F931F930E949C1E9091DD0B89170D
:103DC00008F04DC0E091DB0BF091DC0B9EE0899F89
:103DD000E00DF11D11248081882309F440C0A281E7
:103DE000B3811C961D921D921D921C921F97509696
:103DF0001D921D921D921C925397D4961D921D9256
:103E00001D921C92D79794961D921D921D921C9202
:103E1000979754961D921D921D921C9257978485D8
:103E20008823E9F082819381428550E05195419544
:103E30005109052E000C660B770BFC0100891189D6
:103E400022893389401751076207730741F0408B7D
:103E5000518B628B738B1F910F910C94600F1F918C
:103E60000F9108958F929F92AF92BF92CF92DF925F
:103E7000EF92FF921F93CF93DF930E949C1E7C01D1
:103E80000E949C1EBC01809180048E151F0409F0C5
:103E90000CF4A8C027E12E9DC0012F9D900D112488
:103EA000C0917E04D0917F04C80FD91FCD80DE80E1
:103EB0000D2C000CEE08FF0889809A80092C000C5C
:103EC000AA08BB082F813885032E000C440B550B24
:103ED0002C193D094E095F09072E000C880B990B20
:103EE000681979098A099B090E9468412B813C81E4
:103EF000032E000C440B550B281939094A095B099C
:103F00000E940541BA01A9014C0D5D1D6E1D7F1D6A
:103F1000052E000C660B770B8D859E85AF85B889C5
:103F200084179507A607B70709F45CC04D875E871D
:103F30006F87788B8985811155C08A85803308F019
:103F40004FC0188161E0812F0E94E9048A85282FE3
:103F500030E0F901EE0FFF1FE20FF31FE75CF44FB3
:103F60001F739081907C912B90831B861C862CE084
:103F7000622F0E947841829FB001112430E020E03E
:103F8000AB01420F531FFA01EE0FFF1FE40FF51FA5
:103F9000E75CF44F908196FD16C02F5F3F4F2C30A9
:103FA000310571F7813051F51092800082E08093E5
:103FB00081001092850010928400B19A80916F0068
:103FC000826080936F00EA858E2F90E0FC01EE0FF7
:103FD000FF1FE80FF91FE75CF44F80818064808346
:103FE00081E08987DF91CF911F91FF90EF90DF9063
:103FF000CF90BF90AF909F908F900895823061F4E2
:10400000109290008093910010929500109294006D
:1040100088BB80937100D7CF833069F41092A000E1
:1040200082E08093A1001092A5001092A40089BBA9
:1040300080937200C8CF8111C6CF1092200182E018
:104040008093210110922501109224018ABB809354
:104050007300B9CFEF92FF921F93CF93DF930E942B
:104060009C1EEC010E94FE037C010E94110422E1CF
:104070002C9FC0012D9F900D1124C091CC0AD0918E
:10408000CD0AC80FD91F8E858823A1F010E0898939
:10409000811781F0412F60E0CE010E94710C4889A8
:1040A000B701149F600D711D1124CE010E94D00C28
:1040B0001F5FEDCFDF91CF911F91FF90EF9008959B
:1040C0000E949C1E892B49F01092D20B1092D30BA8
:1040D0001092D40B1092D50B08950E945306609352
:1040E000D20B7093D30B8093D40B9093D50B089580
:1040F000AF92BF92CF92DF92EF92FF920F931F93F6
:10410000CF93DF9300D01F92CDB7DEB75C01198249
:104110001A821B821C82CE0101967C0110E000E015
:104120006C01F501808191819C012F5F3F4F3183AC
:1041300020830E94F61DF7018083F8018E3241F042
:104140000F5F1F4F8FEFE81AF80A0430110549F787
:10415000EC0DFD1D1082C6010E943E3F0F900F9096
:104160000F900F90DF91CF911F910F91FF90EF90E3
:10417000DF90CF90BF90AF900895EF92FF920F9392
:104180001F93CF93DF9300D0CDB7DEB78C017B01B7
:10419000CA010E943E3FAC01092E000C660B770B52
:1041A000E114F10409F473C084F42EEFE2162FEF4A
:1041B000F2060CF055C00F900F900F90DF91CF9149
:1041C0001F910F91FF90EF900895E2E0EE16F10439
:1041D00009F485C00CF470C023E0E216F10459F72D
:1041E00081E0411551056105710509F480E0F80190
:1041F0008487452B462B472B29F519821A821B826F
:10420000BE016F5F7F4F80E394E00E9476031982C6
:104210001A821B82BE016F5F7F4F85E194E00E948E
:1042200076030E945F060E945306F801648375833B
:10423000868397830E945306F8016087718782877F
:104240009387B9CF6585768580E394E00E947007F7
:10425000F8016785708985E194E00E947007E3CFDB
:1042600019821A821B82BE016F5F7F4F80E394E048
:104270000E94760319821A821B82BE016F5F7F4FF4
:1042800085E194E00E9476030E945F0694CFF801D6
:10429000968785870E945306F80164837583868319
:1042A00097838485882309F486CF6585768580E3A6
:1042B00094E00E9470077FCFF801908B87870E945F
:1042C0005306F801608771878287938784858823E6
:1042D00009F471CF6785708985E194E0EACF77FDB5
:1042E00012C04F3F51056105710529F024F04FEFD1
:1042F00050E060E070E06FEF70E0641B710985E0F2
:104300000E94250558CF40E0F6CFFC018681813020
:1043100041F481819281FC012081222321F00C94BF
:10432000BD208230B1F30895EF92FF920F931F9357
:10433000CF93DF930E949C1E8C018091DA0B801733
:10434000110619F114F10E949C1E7C010E94FE03CB
:10435000EC010E94110487E0809F9001819F300D45
:1043600011248091D80B9091D90B820F931FFC01DF
:104370002081222351F0AE01B701DF91CF911F912F
:104380000F91FF90EF900C948521DF91CF911F91B9
:104390000F91FF90EF900895FF920F931F93CF938B
:1043A000DF930E949C1EEC010E94FE038C010E9480
:1043B0009C1EF82E27E02C9FC0012D9F900D1124EC
:1043C000C091C90AD091CA0AC80FD91F8E8188230B
:1043D00099F164E173E0C8010E94833F01E010E0BD
:1043E000009711F10E943E3F9E81992399F0982FEA
:1043F0009770980101C0220F9A95EAF786958695E5
:104400008695EC81FD81E80FF11D8081FF2049F048
:10441000282B208364E173E090E080E00E94833FDA
:10442000DFCF20952823F5CFCE01DF91CF911F91CB
:104430000F91FF900C94511DDF91CF911F910F911F
:10444000FF900895FB0101900020E9F73197AF013B
:10445000461B570BDC01ED91FC910280F381E02DAE
:10446000199480914C118823A1F060911F128091C2
:104470001D1290911E120E94A7078091541188234B
:1044800041F066E173E080911D1290911E120E942E
:1044900022221092531110924C1180E008958F92B5
:1044A0009F92AF92BF92EF92FF920F931F93CF9381
:1044B000DF93CDB7DEB7A1970FB6F894DEBF0FBE7E
:1044C000CDBF7C01FA01CB0119A2223008F42AE009
:1044D0008E010F5D1F4F822E912CB12CA12CBF019C
:1044E000A50194010E943741F901CA016A300CF517
:1044F000605DD8016E938D01232B242B252B79F73A
:1045000090E080E0109721F0BD01C7010E942222B7
:10451000A1960FB6F894DEBF0FBECDBFDF91CF914D
:104520001F910F91FF90EF90BF90AF909F908F9051
:104530000895695CDECFCF9390914C119923A9F037
:10454000C82F6091201280911D1290911E120E941E
:10455000A7074C2F50E070E060E02AE080911D1228
:1045600090911E12CF910C944F22CF91089590916B
:104570004C11911110C091E090934C1190935311F4
:10458000482F50E070E060E02AE080911D12909189
:104590001E120C944F220895CF93DF9390914C11EB
:1045A00091110EC0EB010E94B72280914C1188231B
:1045B00019F0CE010E94AE07DF91CF910C94312209
:1045C00080E0DF91CF9108950E9453066093D20B53
:1045D0007093D30B8093D40B9093D50B60E273E070
:1045E00085E00C94CC220F931F93CF93DF9390918F
:1045F0006904E0916704F091680480E0981721F065
:1046000013828F5F3596FACF109269041092770467
:104610001092C50A9091C80AE091C60AF091C70AA3
:1046200080E0981721F012868F5F3B96FACF1092A8
:10463000C80A30918004A0917E04B0917F0420E0EC
:104640003217D1F019968C911997882391F01A9608
:10465000EC911A978E2F90E0FC01EE0FFF1FE80FF0
:10466000F91FE75CF44F80818F7B808319961C9241
:1046700019972F5F5796E4CF109280049091DD0B2D
:10468000E091DB0BF091DC0B80E0981721F01082B9
:104690008F5F3E96FACF1092DD0B9091CE0AE0919B
:1046A000CC0AF091CD0A80E0981731F026852111CF
:1046B00016868F5F7296F8CF1092CE0A109266041B
:1046C0009091CB0AE091C90AF091CA0A80E098174C
:1046D00021F016828F5F3796FACF1092CB0A909115
:1046E0007B04E0917904F0917A0480E0981721F03E
:1046F00016828F5F3996FACF10927B0410E006E0A5
:1047000080916E041817A0F4C0916C04D0916D04D0
:10471000109FC00DD11D11248B8180FF07C062E066
:104720008A810E94E9048B818E7F8B831F5FE8CF93
:1047300010926E04D0E0C0E010E000E08091DA0B4F
:1047400080171106C9F0E091D80BF091D90BEC0F4E
:10475000FD1F10828681813049F481819281FC01A4
:104760002081222329F00E94FF1C02C08230A9F37D
:104770000F5F1F4F2796E2CF1092DA0B1092D10BEA
:104780001092D00B1092D70B1092580C1092570C1D
:104790001092C20A1092C10A64E273E085E0DF91D0
:1047A000CF911F910F910C94CC2267E273E08FE0C0
:1047B0000C94CC222091C10A3091C20A820F931F1F
:1047C0009093C20A8093C10A8034964040F066E319
:1047D00075E085E00E94CC2290E080E00895C90158
:1047E0008F579B4F089581E08093D70B6AE273E067
:1047F00081E10C94CC22CF93DF938AE00E94B72210
:104800008091D00B9091D10B892B91F18BE390E0AB
:104810000E94F61DC82F80914C11882379F0609179
:10482000201280911D1290911E120E94A7076C2FDA
:1048300080911D1290911E120E94A707C1E0D0E046
:104840008091D00B9091D10BC817D90788F4CE0175
:10485000CB960E94F61D90914C11992339F0682F48
:1048600080911D1290911E120E94A7072196E8CFF9
:104870000E94312281E080937804DF91CF910895E6
:10488000AF92BF92CF92DF92EF92FF920F931F935E
:10489000CF93DF93C0E0D5E080916904C81778F426
:1048A0008091670490916804CD9F800D911D112423
:1048B000FC01238121110E943115CF5FEDCFC0E0B3
:1048C000D5E080916904C81778F4809167049091CD
:1048D0006804CD9F800D911D1124FC0123812111BD
:1048E0000E944215CF5FEDCF10E069E0C62E8091A7
:1048F0007B041817D8F5C0917904D0917A041C9DD7
:10490000C00DD11D11248E81882371F180917C040A
:1049100090917D04892B41F160E0CE010E94711DD0
:10492000D12CF12CE12C8D818E151F04E9F0E4F0DF
:10493000EF81F885EE0DFF1D808100E0A82EB12CDF
:1049400080FF06C041E0602F6D0DCE010E945E1316
:10495000C501959587950F5F083081F7FFEFEF1A36
:10496000FF0A88E0D80EDFCF1F5FC1CF10E049E01B
:10497000C42E80917B041817D8F5C0917904D0918A
:104980007A041C9DC00DD11D11248E81882371F1E4
:1049900080917C0490917D04892B41F160E0CE01EF
:1049A0000E94711DD12CF12CE12C8D818E151F04DC
:1049B000E9F0E4F0EF81F885EE0DFF1D808100E065
:1049C000A82EB12C80FD06C040E0602F6D0DCE01F9
:1049D0000E945E13C501959587950F5F083081F79A
:1049E000EFEFEE1AFE0AF8E0DF0EDFCF1F5FC1CF58
:1049F00010E006E080916E041817E0F4C0916C049A
:104A0000D0916D04109FC00DD11D112460E0CE0126
:104A10000E94B9144C815D8170E060E0CE010E947B
:104A20007A144C815D816FEF7FEFCE010E947A1482
:104A30001F5FE0CFC0E0DEE180916604C81728F573
:104A4000A0916404B0916504CD9FA00DB11D112407
:104A50005D968C915D978823B1F056968D919C91CF
:104A6000579723E0969587952A95E1F714969C939E
:104A70008E931397E0916204F0916304309719F0DC
:104A80006D917C911995CF5FD7CF80914C11811199
:104A90000FC082E20E94B722DF91CF911F910F9148
:104AA000FF90EF90DF90CF90BF90AF900C943122A9
:104AB000DF91CF911F910F91FF90EF90DF90CF90FA
:104AC000BF90AF900895CF93DF9320914C11222394
:104AD000A1F0EC016091201280911D1290911E12A4
:104AE0000E94A707209749F0BE0180911D12909166
:104AF0001E12DF91CF910C942222DF91CF91089565
:104B00000F931F93CF93DF93909178049923A9F08B
:104B10008A01D62FC82F8DE10E94B722C8010E94BA
:104B200063258D2F0E949B228C2F0E949B22DF9158
:104B3000CF911F910F910C943122DF91CF911F9152
:104B40000F9108950F931F93CF9390917804992319
:104B500081F08B01C82F86E00E94B722C8010E9415
:104B600063258C2F0E949B22CF911F910F910C9453
:104B70003122CF911F910F9108950F931F93CF93DF
:104B8000DF93909178049923A9F08A01D62FC82F3A
:104B90008EE10E94B722C8010E9463258D2F0E94DA
:104BA0009B228C2F0E949B22DF91CF911F910F910E
:104BB0000C943122DF91CF911F910F9108950F93A3
:104BC0001F93CF9390917804992381F08B01C82F84
:104BD00087E00E94B722C8010E9463258C2F0E94A3
:104BE0009B22CF911F910F910C943122CF911F9155
:104BF0000F910895CF92DF92EF92FF92CF93DF93C0
:104C00006C01809178048823B9F1EB018CE10E945A
:104C1000B722CE010E94632580914C11882321F197
:104C20006091201280911D1290911E120E94A70780
:104C3000C0911D12D0911E120D2C000CEE08FF0821
:104C40002AE0B701A601F7FE0CC06DE2CE010E947A
:104C5000A70744275527BA014C195D096E097F093A
:104C60002AE0CE010E944F22DF91CF91FF90EF907A
:104C7000DF90CF900C943122DF91CF91FF90EF9095
:104C8000DF90CF900895CF93DF93EC0185E00E94F1
:104C9000B722CE010E94632580914C11882321F018
:104CA0008DE293E00E94AE07DF91CF910C94312208
:104CB000EF92FF920F931F93CF93DF93EC01198133
:104CC00025E0129F70011124C7010E945911811122
:104CD00076C189E193E00E944326FB800F2D10E00E
:104CE000000F111FC8010E945911882309F476C1D1
:104CF000C8010E94DA23009711F0FC011182909301
:104D0000C40A8093C30AF09254041C810889212F9D
:104D1000200F3327331FC9012BE0289F7001299FE3
:104D2000F00C1124C7010E945911882309F45BC1BA
:104D3000C7010E94DA23FC01892B49F08FEF8083A1
:104D400081838283838316828FE087831286F09328
:104D5000C70AE093C60A100F109353040F858D8184
:104D6000A02FA80FBB27BB1F09850A0F1B2F111DE2
:104D70008EE0809F7001819FF00C1124C7010E947A
:104D80005911882309F434C1C7010E94DA2300971E
:104D900011F0FC0110829093DC0B8093DB0B0093ED
:104DA00052041E81F7E11F9F70011124C7010E9468
:104DB0005911882309F425C1C7010E94DA230097FD
:104DC000C1F02091C90B203308F017C131E0320F38
:104DD0003093C90BDC011A962C9330E0F901EE0FE9
:104DE000FF1FE20FF31FE75CF44F28EB3BE0328339
:104DF000218390937F0480937E041093510418853F
:104E00000A81212F200F3327331FC9012FE1289F4B
:104E10007001299FF00C1124C7010E9459118823A9
:104E200009F4F4C0C7010E94DA23009719F0DC01ED
:104E300012961C929093760480937504100F109331
:104E400050041F81B2E11B9F70011124C7010E9411
:104E50005911882309F4DFC0C7010E94DA23FC013D
:104E6000892B41F0138212828CE692E09183808339
:104E700011861686F093CD0AE093CC0A10934F0466
:104E80001A890B85E12FE00FFF27FF1F2EE12E9FD0
:104E900070012F9FF00C1124C7010E945911882323
:104EA00009F4BEC0C7010E94DA23FC01892B61F01E
:104EB00080E19F012A5F3F4FD9011D928A95E9F752
:104EC000178A168A108E158EF0936504E093640499
:104ED000100F109361041A85B7E01B9F7001112415
:104EE000C7010E945911882309F49FC0C7010E947D
:104EF000DA23009711F0FC0116829093CA0A80937E
:104F0000C90A10934E041C85F9E01F9F70011124FB
:104F1000C7010E945911882309F48CC0C7010E945F
:104F2000DA23009719F0DC0116961C9290937A040C
:104F30008093790410934D041E85B6E01B9F700189
:104F40001124C7010E945911882309F478C0C701B0
:104F50000E94DA23FC01892B59F0109272041092FE
:104F600071048FE693E0918380831382158214820B
:104F7000F0936D04E0936C0410934C04C989E7E04E
:104F8000CE9F80011124C8010E945911882309F481
:104F90005BC0C8010E94DA23009721F0DC011C925B
:104FA00016961C929093D90B8093D80BC0934B0408
:104FB000DF91CF911F910F91FF90EF900895C7015E
:104FC0000E94DA23009719F0DC0113961C9290934B
:104FD000680480936704109355047FCE80E293E0C9
:104FE0000E94432692CE87E293E00E944326B6CEEB
:104FF00080E393E00E944326D4CE2FEFFC0122876A
:10500000F8CE88E393E00E944326F9CE8EE393E046
:105010000E94432616CF87E493E00E94432630CFB8
:105020008BE493E00E94432656CF84E593E00E94F0
:10503000432669CF82E693E00E9443267DCF88E72E
:1050400093E00E9443269ACF81E893E0DF91CF91CD
:105050001F910F91FF90EF900C944326FB0101905C
:105060000020E9F73197AF01461B570BDC01ED91AA
:10507000FC910284F385E02D1994CF92DF92EF9298
:10508000FF920F931F93CF93DF938C01EB01FC01F1
:10509000D0886D2D70E0FE0101900020E9F7CF016E
:1050A00001978C1B9D0B86179707B0F4681B790B33
:1050B00076956795D82EC8010E94710CCC2EEC2EE7
:1050C000FD2E8E2D8C198D1548F4F70161917F010D
:1050D000C8010E94B80CF5CF60E0EDCFDF91CF9111
:1050E0001F910F91FF90EF90DF90CF9008950E9455
:1050F000304385ED8093BC0080912F0C9091300C53
:10510000A091310CB091320C0796A11DB11D23E086
:10511000B695A795979587952A95D1F72091BC00CC
:1051200024FD03C010922D0C089540912F0C509136
:10513000300C6091310C7091320C452B462B472B73
:1051400069F30097A105B10541F02AE22A95F1F72C
:1051500000C00197A109B109E1CF80912E0C0C94F8
:105160009C0A4F925F926F927F928F929F92AF9222
:10517000BF92CF92DF92EF92FF92CF93DF93EC0139
:105180006A017B0120E030E0A901CB01B6010E9459
:10519000CB3F87FF04C0F7FAF094F7F8F0948C8CBB
:1051A0009D8CAE8CBF8CA7019601C501B4010E94F5
:1051B000CB3F882309F449C06CA97DA98EA99FA97A
:1051C0000E94D23F2B013C01A7019601C501B40109
:1051D0000E9428429B01AC01C301B2010E943140F0
:1051E0000E949A426CAB7DAB8EAB9FABA701960140
:1051F00060E070E080E090E40E9428420E94DB4280
:1052000026E53EE04DE25FE30E94314020E034E2DB
:1052100044E759E40E94314068AF79AF8AAF9BAF51
:10522000CC8EDD8EEE8EFF8ECE01DF91CF91FF9082
:10523000EF90DF90CF90BF90AF909F908F907F9036
:105240006F905F904F900C94600FDF91CF91FF9023
:10525000EF90DF90CF90BF90AF909F908F907F9016
:105260006F905F904F900895EF920F93CF93DF93DD
:10527000EC018FEB92E0998388836B831C861D86FB
:105280001E861F86188A198A1A8A1B8A1C8A1D8AFA
:105290001E8A1F8A80E090E0A0E8BFE3888F998F84
:1052A000AA8FBB8F1C8E1D8E1E8E1F8E88A399A366
:1052B000AAA3BBA31CA21DA21EA21FA261E070E0B4
:1052C0007DA76CA73FEF3FA718A619A61AA61BA695
:1052D0004C832D830E83EF821EA61CAA1DAA1EAA34
:1052E0001FAA18AE19AE1AAE1BAE1CAE1DAE1EAE76
:1052F0001FAEFE01E05CFF4F80839183A283B383E6
:105300001A82188619861A861B86CE010E943F0DC6
:1053100040E050E060E87FE3CE01DF91CF910F9154
:10532000EF900C94B128CF92DF92EF92FF920F93FF
:105330001F93CF93DF930E949C1ED82F0E949C1E28
:105340007C010E949C1E8C018091DD0BD817C0F55A
:105350008091DB0B9091DC0B9C014EE0D49F200DE3
:10536000311D1124E9018881882359F0B70190E0AB
:1053700080E00E94D03FAB01BC018A819B810E94EA
:10538000B21088818823E1F0B80190E080E00E94AB
:10539000D03F6B017C0120E030E0A9010E94CB3FAF
:1053A000882371F0B701A6018A819B81DF91CF919B
:1053B0001F910F91FF90EF90DF90CF900C94B12848
:1053C000DF91CF911F910F91FF90EF90DF90CF90E1
:1053D00008958F929F92AF92BF92CF92DF92EF92F9
:1053E000FF92CF93DF930E949C1ED82FC82F0E945C
:1053F000AD03882309F495C081E080931612809351
:10540000171280911812909119120E945C3F6B0143
:105410007C018091DD0BC81708F078C08091DB0B10
:105420009091DC0B9C014EE0D49F200D311D112486
:10543000E9018881882309F469C019828E819F81DE
:10544000A885B985C816D906EA06FB0609F45EC028
:105450008A819B81DC011C968D909D90AD90BC90C3
:105460001F972B85222351F02D85222339F0ED91B2
:10547000FC910280F381E02D19951D868C8588238F
:1054800079F0C814D904EA04FB0454F48E819F8196
:10549000A885B985C816D906EA06FB060CF41C8651
:1054A0008C85811110C08C149D04AE04BF045CF483
:1054B0008E819F81A885B9858C159D05AE05BF0598
:1054C00014F481E08C878A819B814A852C85429FD8
:1054D000A0011124052E000C660B770B4C0D5D1DF1
:1054E0006E1D7F1DFC0180889188A288B3884815B5
:1054F00059056A057B0531F0408B518B628B738BAC
:105500000E94600FCE82DF82E886F986DF91CF911C
:10551000FF90EF90DF90CF90BF90AF909F908F90D3
:10552000089510921712C12CD12C760172CFCF9210
:10553000DF92EF92FF920F931F93CF93DF93EC01D3
:10554000F62ED42EE22E0E81000F10E0A80170E09E
:1055500060E08C819D810E943543FF0C6F2D70E0CF
:10556000EC81FD81E60FF71FD1828C819D81680F50
:10557000791FFB01E08260E08B810E94BB04011572
:10558000110501F1EC81FD81E00FF11F3197C08021
:1055900088E0E82EF12C90E8D92E6C2D6D218981C0
:1055A0000E94BB0461E08A810E94BB0460E08A81A2
:1055B0000E94BB04D694F1E0EF1AF10871F7015094
:1055C0001109DDCF61E08B81DF91CF911F910F91A8
:1055D000FF90EF90DF90CF900C94BB04AF92BF92FE
:1055E000CF92DF92EF92FF920F931F93CF93DF93AF
:1055F0000E949C1EC82F0E949C1ED82E0E94FE0353
:105600008C010E949C1EC82E64E173E0C8010E94B8
:10561000833F2BE0C29FE00111240D2D000F000FEE
:10562000000F10E0EE24E394F12C009709F473C00E
:105630000E943E3FDC01E091C60AF091C70AEC0FE0
:10564000FD1F8285882389F1BD0193E075956795DB
:105650009A95E1F76F7177279A2F9770268130819D
:1056600031112DC0D21608F5A034F8F49B01200F9B
:10567000311FA085B185A20FB31F4C91570102C005
:10568000AA0CBB1C9A95E2F7C501CC20A9F0842B8B
:105690008C9380859185280F391F41E0460FD901F1
:1056A0002C916D2DCF010E94972A64E173E090E068
:1056B00080E00E94833FB9CF80958423E9CFD21642
:1056C000A0F730E0A90183E0440F551F8A95E1F768
:1056D000A417150654F79F5F983009F490E0215005
:1056E0003109261B370BA481B581A20FB31F2C9162
:1056F000570102C0AA0CBB1C9A95E2F7C501CC2049
:1057000039F0822B8C9341E0CF010E94D012CDCF93
:1057100080958223F7CFDF91CF911F910F91FF905A
:10572000EF90DF90CF90BF90AF9008956F927F92EF
:105730008F929F92AF92BF92CF92DF92EF92FF92A1
:105740000F931F93CF93DF930E949C1EEC010E9446
:105750009C1E682E0E94FE034C010E949C1E5C0150
:105760000E949C1E4BE04C9F90014D9F300D1124D8
:105770000091C60A1091C70A020F131FD8011A968A
:105780002C91222309F44BC0C7E0D0E0712C6C01AE
:10579000DD24BB24E62CEE0CEE0CEE0CF12C6C2F71
:1057A0004C2F4F5FC6010C2E02C0959587950A9429
:1057B000E2F780FF31C0F8019681691660F5F401C7
:1057C000E70DF11D808187FD80E295010C2E02C05E
:1057D000359527950A94E2F720FD8068D8013C9121
:1057E000332311F06917B8F4E82FEF77F0E0EA54AB
:1057F000FB4F2491311122C087FD2068D8011896F3
:10580000ED91FC91EC0FFD1FEE0DFF1D2083662D29
:10581000C8010E94972A7394219708F0C0CFDF91A6
:10582000CF911F910F91FF90EF90DF90CF90BF909D
:10583000AF909F908F907F906F900895E22FEE0F22
:1058400087FDE160292F2150330BC9018C1B9D0B73
:10585000D80114962D913C91820F931FDC01EC939B
:1058600041E0C8010E94D012D6CF1F93CF93DF939F
:10587000DC012C9121110CC016962C91621700F5B9
:1058800021E024274CE0DF91CF911F910C94972ABF
:105890001796EC91F0E0F595E7951E2F411101C0A8
:1058A0001860EC010E94C91260E8610F40E0CE016F
:1058B0000E945812CE01DF91CF911F910C94B21229
:1058C000DF91CF911F910895EF92FF920F931F9355
:1058D000CF93DF93182F8093D60BC0E08091C50A39
:1058E000C817A0F42C2F30E0220F331F8091C30A79
:1058F0009091C40A820F931F60E0111103C0DC0174
:1059000011966C910E943113CF5FE8CFC0E00BE09D
:105910008091C80AC817B0F4E090C60AF090C70A90
:10592000C09FE00CF11C1124D0E0F70182858D1797
:1059300039F0412F6D2FC7010E94352CDF5FF5CF65
:10594000CF5FE6CFC0E0DEE08091DD0BC817E0F46A
:10595000E091DB0BF091DC0BCD9FE00DF11D1124EC
:105960008081882359F082819381DC01ED91FC9143
:10597000112331F00190F081E02D1995CF5FE4CF34
:105980000280F381E02DF9CFC0E0D7E08091DA0BFF
:10599000C817D8F48091D80B9091D90BCD9F800D6A
:1059A000911D1124FC012081112331F042E953E0C3
:1059B000211106C0CF5FEACF2223E1F348E953E08B
:1059C0006EEF7FEF0E948521F5CF00E097E0E92E92
:1059D0008091CB0A081710F5C091C90AD091CA0A64
:1059E0000E9DC00DD11D11241123A1F060E088810E
:1059F0000E94BB04FB80FF2039F040E069818A816E
:105A00000E94321DFA94F7CF61E088810E94BB04A6
:105A10000F5FDECFCE010E94511DFACF00E082E180
:105A2000F82EEE24E3948091CE0A081768F5C09111
:105A3000CC0AD091CD0A0F9DC00DD11D1124112388
:105A4000D1F01D868C81E092330C8093550C10921E
:105A5000340C1092560C90E080E00E94370C0E94AB
:105A6000AD0B6E816B7F6E83686040E0CE010E945B
:105A7000480C0F5FD8CFCE010E94290D6E81862F72
:105A800084608E836C60F1CFDF91CF911F910F9175
:105A9000FF90EF9008950F931F93CF93DF93FC0136
:105AA00022852223C1F16217B0F5442391F12FEF33
:105AB000240F203108F02FE0D62F8C01FC01278322
:105AC0008081811110C08681681720F44AE0C801E6
:105AD0000E94972A40E06D2FC801DF91CF911F915E
